{
    "_format": "hh-sol-artifact-1",
    "contractName": "Staking",
    "sourceName": "contracts/Staking.sol",
    "abi": [
        {
            "inputs": [
                {
                    "internalType": "address",
                    "name": "token",
                    "type": "address"
                },
                {
                    "internalType": "uint256",
                    "name": "rate",
                    "type": "uint256"
                },
                {
                    "internalType": "uint8",
                    "name": "blocks",
                    "type": "uint8"
                }
            ],
            "stateMutability": "nonpayable",
            "type": "constructor"
        },
        {
            "anonymous": false,
            "inputs": [
                {
                    "indexed": true,
                    "internalType": "address",
                    "name": "user",
                    "type": "address"
                },
                {
                    "indexed": false,
                    "internalType": "uint256",
                    "name": "amount",
                    "type": "uint256"
                },
                {
                    "indexed": false,
                    "internalType": "uint256",
                    "name": "reward",
                    "type": "uint256"
                },
                {
                    "indexed": false,
                    "internalType": "uint256",
                    "name": "counter",
                    "type": "uint256"
                }
            ],
            "name": "Claimed",
            "type": "event"
        },
        {
            "anonymous": false,
            "inputs": [
                {
                    "indexed": true,
                    "internalType": "address",
                    "name": "user",
                    "type": "address"
                },
                {
                    "indexed": false,
                    "internalType": "uint256",
                    "name": "amount",
                    "type": "uint256"
                },
                {
                    "indexed": false,
                    "internalType": "uint256",
                    "name": "depositBlock",
                    "type": "uint256"
                },
                {
                    "indexed": false,
                    "internalType": "uint256",
                    "name": "counter",
                    "type": "uint256"
                }
            ],
            "name": "Staked",
            "type": "event"
        },
        {
            "inputs": [
                {
                    "internalType": "address",
                    "name": "user",
                    "type": "address"
                },
                {
                    "internalType": "uint256",
                    "name": "counter",
                    "type": "uint256"
                }
            ],
            "name": "calculateCompoundInterest",
            "outputs": [
                {
                    "internalType": "uint256",
                    "name": "",
                    "type": "uint256"
                }
            ],
            "stateMutability": "view",
            "type": "function"
        },
        {
            "inputs": [
                {
                    "internalType": "uint256",
                    "name": "amount",
                    "type": "uint256"
                },
                {
                    "internalType": "uint256",
                    "name": "rate",
                    "type": "uint256"
                },
                {
                    "internalType": "uint256",
                    "name": "t",
                    "type": "uint256"
                }
            ],
            "name": "compoundInterest",
            "outputs": [
                {
                    "internalType": "uint256",
                    "name": "",
                    "type": "uint256"
                }
            ],
            "stateMutability": "pure",
            "type": "function"
        },
        {
            "inputs": [],
            "name": "interestRate",
            "outputs": [
                {
                    "internalType": "uint256",
                    "name": "",
                    "type": "uint256"
                }
            ],
            "stateMutability": "view",
            "type": "function"
        },
        {
            "inputs": [],
            "name": "minBlocks",
            "outputs": [
                {
                    "internalType": "uint8",
                    "name": "",
                    "type": "uint8"
                }
            ],
            "stateMutability": "view",
            "type": "function"
        },
        {
            "inputs": [],
            "name": "stakableToken",
            "outputs": [
                {
                    "internalType": "contract IERC20",
                    "name": "",
                    "type": "address"
                }
            ],
            "stateMutability": "view",
            "type": "function"
        },
        {
            "inputs": [
                {
                    "internalType": "uint256",
                    "name": "amount",
                    "type": "uint256"
                }
            ],
            "name": "stake",
            "outputs": [],
            "stateMutability": "nonpayable",
            "type": "function"
        },
        {
            "inputs": [
                {
                    "internalType": "address",
                    "name": "",
                    "type": "address"
                }
            ],
            "name": "stakeCounter",
            "outputs": [
                {
                    "internalType": "uint256",
                    "name": "",
                    "type": "uint256"
                }
            ],
            "stateMutability": "view",
            "type": "function"
        },
        {
            "inputs": [
                {
                    "internalType": "address",
                    "name": "",
                    "type": "address"
                },
                {
                    "internalType": "uint256",
                    "name": "",
                    "type": "uint256"
                }
            ],
            "name": "stakingDetails",
            "outputs": [
                {
                    "internalType": "uint256",
                    "name": "depositBlock",
                    "type": "uint256"
                },
                {
                    "internalType": "uint256",
                    "name": "amount",
                    "type": "uint256"
                }
            ],
            "stateMutability": "view",
            "type": "function"
        },
        {
            "inputs": [
                {
                    "internalType": "uint256",
                    "name": "counter",
                    "type": "uint256"
                }
            ],
            "name": "withdraw",
            "outputs": [],
            "stateMutability": "nonpayable",
            "type": "function"
        }
    ],
    "bytecode": "0x608060405234801561001057600080fd5b50604051610b05380380610b0583398101604081905261002f91610067565b6000805460019390935560ff909116600160a01b026001600160a81b03199092166001600160a01b03909316929092171790556100bc565b60008060006060848603121561007c57600080fd5b83516001600160a01b038116811461009357600080fd5b60208501516040860151919450925060ff811681146100b157600080fd5b809150509250925092565b610a3a806100cb6000396000f3fe608060405234801561001057600080fd5b50600436106100935760003560e01c80637c3a00fd116100665780637c3a00fd14610145578063a1ac6cf31461014e578063a694fc3a14610161578063f170767b14610174578063ff21d1e51461019457600080fd5b80630e76b1ba146100985780631c96c3fb146100e45780632e1a7d4d1461010f5780636823299014610124575b600080fd5b6100ca6100a636600461083b565b60036020908152600092835260408084209091529082529020805460019091015482565b604080519283526020830191909152015b60405180910390f35b6000546100f7906001600160a01b031681565b6040516001600160a01b0390911681526020016100db565b61012261011d366004610865565b6101ba565b005b61013761013236600461087e565b6101c6565b6040519081526020016100db565b61013760015481565b61013761015c36600461083b565b610215565b61012261016f366004610865565b610296565b6101376101823660046108aa565b60026020526000908152604090205481565b6000546101a890600160a01b900460ff1681565b60405160ff90911681526020016100db565b6101c3816103b1565b50565b6000805b8281101561020c576101ee670de0b6b3a76400006101e887876104ec565b906104ff565b6101f890866108db565b945080610204816108ee565b9150506101ca565b50929392505050565b6001600160a01b03821660009081526003602090815260408083208484529091528120600181015490548261024a8243610907565b6000805491925090600160a01b900460ff166102668184610930565b6102709084610907565b61027a9190610944565b905061028984600154836101c6565b9450505050505b92915050565b600081116102eb5760405162461bcd60e51b815260206004820152601d60248201527f5374616b696e673a43616e6e6f74207374616b65203020746f6b656e7300000060448201526064015b60405180910390fd5b3360009081526002602052604090205481906103089060016108db565b33600081815260026020908152604080832085905560038252808320948352939052918220438155600181018490559154610350916001600160a01b0390911690308561050b565b33600081815260026020526040908190205490517fb4caaf29adda3eefee3ad552a8e85058589bf834c7466cae4ee58787f70589ed916103a491869143919283526020830191909152604082015260600190565b60405180910390a2505050565b33600090815260036020908152604080832084845290915290206001015461041b5760405162461bcd60e51b815260206004820152601d60248201527f5374616b696e673a205374616b6520646f6573206e6f7420657869737400000060448201526064016102e2565b336000818152600360209081526040808320858452909152812060010154916104449084610215565b336000818152600360209081526040808320888452825280832083815560019081018490559383526002909152902054919250610481919061057c565b3360008181526002602052604081209290925590546104ac916001600160a01b039091169083610588565b604080518381526020810183905290810184905233907f9cdcf2f7714cca3508c7f0110b04a90a80a3a8dd0e35de99689db74d28c5383e906060016103a4565b60006104f88284610958565b9392505050565b60006104f88284610944565b6040516001600160a01b03808516602483015283166044820152606481018290526105769085906323b872dd60e01b906084015b60408051601f198184030181529190526020810180516001600160e01b03166001600160e01b0319909316929092179091526105bd565b50505050565b60006104f88284610907565b6040516001600160a01b0383166024820152604481018290526105b890849063a9059cbb60e01b9060640161053f565b505050565b6000610612826040518060400160405280602081526020017f5361666545524332303a206c6f772d6c6576656c2063616c6c206661696c6564815250856001600160a01b031661068f9092919063ffffffff16565b8051909150156105b85780806020019051810190610630919061096f565b6105b85760405162461bcd60e51b815260206004820152602a60248201527f5361666545524332303a204552433230206f7065726174696f6e20646964206e6044820152691bdd081cdd58d8d9595960b21b60648201526084016102e2565b606061069e84846000856106a6565b949350505050565b6060824710156107075760405162461bcd60e51b815260206004820152602660248201527f416464726573733a20696e73756666696369656e742062616c616e636520666f6044820152651c8818d85b1b60d21b60648201526084016102e2565b600080866001600160a01b0316858760405161072391906109b5565b60006040518083038185875af1925050503d8060008114610760576040519150601f19603f3d011682016040523d82523d6000602084013e610765565b606091505b509150915061077687838387610781565b979650505050505050565b606083156107f05782516000036107e9576001600160a01b0385163b6107e95760405162461bcd60e51b815260206004820152601d60248201527f416464726573733a2063616c6c20746f206e6f6e2d636f6e747261637400000060448201526064016102e2565b508161069e565b61069e83838151156108055781518083602001fd5b8060405162461bcd60e51b81526004016102e291906109d1565b80356001600160a01b038116811461083657600080fd5b919050565b6000806040838503121561084e57600080fd5b6108578361081f565b946020939093013593505050565b60006020828403121561087757600080fd5b5035919050565b60008060006060848603121561089357600080fd5b505081359360208301359350604090920135919050565b6000602082840312156108bc57600080fd5b6104f88261081f565b634e487b7160e01b600052601160045260246000fd5b80820180821115610290576102906108c5565b600060018201610900576109006108c5565b5060010190565b81810381811115610290576102906108c5565b634e487b7160e01b600052601260045260246000fd5b60008261093f5761093f61091a565b500690565b6000826109535761095361091a565b500490565b8082028115828204841417610290576102906108c5565b60006020828403121561098157600080fd5b815180151581146104f857600080fd5b60005b838110156109ac578181015183820152602001610994565b50506000910152565b600082516109c7818460208701610991565b9190910192915050565b60208152600082518060208401526109f0816040850160208701610991565b601f01601f1916919091016040019291505056fea26469706673582212203f01cd46db08f969d5c5eab056b73cd20fb10614c50d95bccc88819251b73b8364736f6c63430008120033",
    "linkReferences": {},
    "deployedLinkReferences": {}
}